{
    "contractName": "NFTMarket",
    "abi": [
        {
            "inputs": [],
            "stateMutability": "nonpayable",
            "type": "constructor"
        },
        {
            "anonymous": false,
            "inputs": [
                {
                    "indexed": true,
                    "internalType": "uint256",
                    "name": "itemId",
                    "type": "uint256"
                },
                {
                    "indexed": true,
                    "internalType": "address",
                    "name": "nftContract",
                    "type": "address"
                },
                {
                    "indexed": true,
                    "internalType": "uint256",
                    "name": "tokenId",
                    "type": "uint256"
                },
                {
                    "indexed": false,
                    "internalType": "address",
                    "name": "seller",
                    "type": "address"
                },
                {
                    "indexed": false,
                    "internalType": "address",
                    "name": "owner",
                    "type": "address"
                },
                {
                    "indexed": false,
                    "internalType": "string",
                    "name": "category",
                    "type": "string"
                },
                {
                    "indexed": false,
                    "internalType": "uint256",
                    "name": "price",
                    "type": "uint256"
                },
                {
                    "indexed": false,
                    "internalType": "bool",
                    "name": "isSold",
                    "type": "bool"
                }
            ],
            "name": "MarketItemCreated",
            "type": "event"
        },
        {
            "inputs": [
                {
                    "internalType": "address",
                    "name": "nftContract",
                    "type": "address"
                },
                {
                    "internalType": "uint256",
                    "name": "tokenId",
                    "type": "uint256"
                },
                {
                    "internalType": "uint256",
                    "name": "price",
                    "type": "uint256"
                },
                {
                    "internalType": "string",
                    "name": "category",
                    "type": "string"
                }
            ],
            "name": "createMarketItem",
            "outputs": [],
            "stateMutability": "payable",
            "type": "function"
        },
        {
            "inputs": [
                {
                    "internalType": "address",
                    "name": "nftContract",
                    "type": "address"
                },
                {
                    "internalType": "uint256",
                    "name": "itemId",
                    "type": "uint256"
                }
            ],
            "name": "createMarketSale",
            "outputs": [],
            "stateMutability": "payable",
            "type": "function"
        },
        {
            "inputs": [],
            "name": "fetchCreateNFTs",
            "outputs": [
                {
                    "components": [
                        {
                            "internalType": "uint256",
                            "name": "itemId",
                            "type": "uint256"
                        },
                        {
                            "internalType": "address",
                            "name": "nftContract",
                            "type": "address"
                        },
                        {
                            "internalType": "uint256",
                            "name": "tokenId",
                            "type": "uint256"
                        },
                        {
                            "internalType": "address payable",
                            "name": "seller",
                            "type": "address"
                        },
                        {
                            "internalType": "address payable",
                            "name": "owner",
                            "type": "address"
                        },
                        {
                            "internalType": "string",
                            "name": "category",
                            "type": "string"
                        },
                        {
                            "internalType": "uint256",
                            "name": "price",
                            "type": "uint256"
                        },
                        {
                            "internalType": "bool",
                            "name": "isSold",
                            "type": "bool"
                        }
                    ],
                    "internalType": "struct NFTMarket.MarketItem[]",
                    "name": "",
                    "type": "tuple[]"
                }
            ],
            "stateMutability": "view",
            "type": "function"
        },
        {
            "inputs": [],
            "name": "fetchPurchasedNFTs",
            "outputs": [
                {
                    "components": [
                        {
                            "internalType": "uint256",
                            "name": "itemId",
                            "type": "uint256"
                        },
                        {
                            "internalType": "address",
                            "name": "nftContract",
                            "type": "address"
                        },
                        {
                            "internalType": "uint256",
                            "name": "tokenId",
                            "type": "uint256"
                        },
                        {
                            "internalType": "address payable",
                            "name": "seller",
                            "type": "address"
                        },
                        {
                            "internalType": "address payable",
                            "name": "owner",
                            "type": "address"
                        },
                        {
                            "internalType": "string",
                            "name": "category",
                            "type": "string"
                        },
                        {
                            "internalType": "uint256",
                            "name": "price",
                            "type": "uint256"
                        },
                        {
                            "internalType": "bool",
                            "name": "isSold",
                            "type": "bool"
                        }
                    ],
                    "internalType": "struct NFTMarket.MarketItem[]",
                    "name": "",
                    "type": "tuple[]"
                }
            ],
            "stateMutability": "view",
            "type": "function"
        },
        {
            "inputs": [
                {
                    "internalType": "string",
                    "name": "category",
                    "type": "string"
                }
            ],
            "name": "getItemsByCategory",
            "outputs": [
                {
                    "components": [
                        {
                            "internalType": "uint256",
                            "name": "itemId",
                            "type": "uint256"
                        },
                        {
                            "internalType": "address",
                            "name": "nftContract",
                            "type": "address"
                        },
                        {
                            "internalType": "uint256",
                            "name": "tokenId",
                            "type": "uint256"
                        },
                        {
                            "internalType": "address payable",
                            "name": "seller",
                            "type": "address"
                        },
                        {
                            "internalType": "address payable",
                            "name": "owner",
                            "type": "address"
                        },
                        {
                            "internalType": "string",
                            "name": "category",
                            "type": "string"
                        },
                        {
                            "internalType": "uint256",
                            "name": "price",
                            "type": "uint256"
                        },
                        {
                            "internalType": "bool",
                            "name": "isSold",
                            "type": "bool"
                        }
                    ],
                    "internalType": "struct NFTMarket.MarketItem[]",
                    "name": "",
                    "type": "tuple[]"
                }
            ],
            "stateMutability": "view",
            "type": "function"
        },
        {
            "inputs": [],
            "name": "getListingPrice",
            "outputs": [
                {
                    "internalType": "uint256",
                    "name": "",
                    "type": "uint256"
                }
            ],
            "stateMutability": "view",
            "type": "function"
        },
        {
            "inputs": [],
            "name": "getMarketItems",
            "outputs": [
                {
                    "components": [
                        {
                            "internalType": "uint256",
                            "name": "itemId",
                            "type": "uint256"
                        },
                        {
                            "internalType": "address",
                            "name": "nftContract",
                            "type": "address"
                        },
                        {
                            "internalType": "uint256",
                            "name": "tokenId",
                            "type": "uint256"
                        },
                        {
                            "internalType": "address payable",
                            "name": "seller",
                            "type": "address"
                        },
                        {
                            "internalType": "address payable",
                            "name": "owner",
                            "type": "address"
                        },
                        {
                            "internalType": "string",
                            "name": "category",
                            "type": "string"
                        },
                        {
                            "internalType": "uint256",
                            "name": "price",
                            "type": "uint256"
                        },
                        {
                            "internalType": "bool",
                            "name": "isSold",
                            "type": "bool"
                        }
                    ],
                    "internalType": "struct NFTMarket.MarketItem[]",
                    "name": "",
                    "type": "tuple[]"
                }
            ],
            "stateMutability": "view",
            "type": "function"
        }
    ],
    "bytecode": "6080604052670de0b6b3a764000060045534801561001c57600080fd5b506001600055600380546001600160a01b03191633179055611620806100436000396000f3fe6080604052600436106100705760003560e01c806395478fbf1161004e57806395478fbf146100cf578063c23b139e146100ef578063ee45a71114610104578063ee6ba2341461011757600080fd5b806312e855851461007557806329aa3a42146100985780637cbad146146100ba575b600080fd5b34801561008157600080fd5b506004546040519081526020015b60405180910390f35b3480156100a457600080fd5b506100ad61012c565b60405161008f919061120d565b3480156100c657600080fd5b506100ad610365565b3480156100db57600080fd5b506100ad6100ea36600461132b565b6105dc565b6101026100fd366004611389565b610952565b005b6101026101123660046113b3565b610b63565b34801561012357600080fd5b506100ad610e6d565b6060600061013960015490565b9050600061014660025490565b6001546101539190611431565b90506000808267ffffffffffffffff81111561017157610171611448565b6040519080825280602002602001820160405280156101aa57816020015b6101976110e4565b81526020019060019003908161018f5790505b50905060005b8481101561035c5760006005816101c884600161145e565b81526020810191909152604001600020600401546001600160a01b0316141561034a5760006005816101fb84600161145e565b815260208082019290925260409081016000908120548082526005808552918390208351610100810185528154815260018201546001600160a01b0390811696820196909652600282015494810194909452600381015485166060850152600481015490941660808401529083018054919450839160a08401919061027f90611476565b80601f01602080910402602001604051908101604052809291908181526020018280546102ab90611476565b80156102f85780601f106102cd576101008083540402835291602001916102f8565b820191906000526020600020905b8154815290600101906020018083116102db57829003601f168201915b50505091835250506006820154602082015260079091015460ff161515604090910152845185908790811061032f5761032f6114b1565b602090810291909101015261034560018661145e565b945050505b80610354816114c7565b9150506101b0565b50949350505050565b6060600061037260015490565b905060008060005b838110156103d557336005600061039284600161145e565b81526020810191909152604001600020600301546001600160a01b031614156103c3576103c060018461145e565b92505b806103cd816114c7565b91505061037a565b5060008267ffffffffffffffff8111156103f1576103f1611448565b60405190808252806020026020018201604052801561042a57816020015b6104176110e4565b81526020019060019003908161040f5790505b50905060005b8481101561035c57336005600061044884600161145e565b81526020810191909152604001600020600301546001600160a01b031614156105ca57600060058161047b84600161145e565b815260208082019290925260409081016000908120548082526005808552918390208351610100810185528154815260018201546001600160a01b0390811696820196909652600282015494810194909452600381015485166060850152600481015490941660808401529083018054919450839160a0840191906104ff90611476565b80601f016020809104026020016040519081016040528092919081815260200182805461052b90611476565b80156105785780601f1061054d57610100808354040283529160200191610578565b820191906000526020600020905b81548152906001019060200180831161055b57829003601f168201915b50505091835250506006820154602082015260079091015460ff16151560409091015284518590879081106105af576105af6114b1565b60209081029190910101526105c560018661145e565b945050505b806105d4816114c7565b915050610430565b606060006105e960015490565b905060008060005b838110156106c657868660405160200161060c9291906114e2565b6040516020818303038152906040528051906020012060056000836001610633919061145e565b815260200190815260200160002060050160405160200161065491906114f2565b604051602081830303815290604052805190602001201480156106a15750600060058161068284600161145e565b81526020810191909152604001600020600401546001600160a01b0316145b156106b4576106b160018461145e565b92505b806106be816114c7565b9150506105f1565b5060008267ffffffffffffffff8111156106e2576106e2611448565b60405190808252806020026020018201604052801561071b57816020015b6107086110e4565b8152602001906001900390816107005790505b50905060005b8481101561094757878760405160200161073c9291906114e2565b6040516020818303038152906040528051906020012060056000836001610763919061145e565b815260200190815260200160002060050160405160200161078491906114f2565b604051602081830303815290604052805190602001201480156107d1575060006005816107b284600161145e565b81526020810191909152604001600020600401546001600160a01b0316145b156109355760006005816107e684600161145e565b815260208082019290925260409081016000908120548082526005808552918390208351610100810185528154815260018201546001600160a01b0390811696820196909652600282015494810194909452600381015485166060850152600481015490941660808401529083018054919450839160a08401919061086a90611476565b80601f016020809104026020016040519081016040528092919081815260200182805461089690611476565b80156108e35780601f106108b8576101008083540402835291602001916108e3565b820191906000526020600020905b8154815290600101906020018083116108c657829003601f168201915b50505091835250506006820154602082015260079091015460ff161515604090910152845185908790811061091a5761091a6114b1565b602090810291909101015261093060018661145e565b945050505b8061093f816114c7565b915050610721565b509695505050505050565b600260005414156109aa5760405162461bcd60e51b815260206004820152601f60248201527f5265656e7472616e637947756172643a207265656e7472616e742063616c6c0060448201526064015b60405180910390fd5b600260008181558281526005602052604090206006810154910154348214610a2e5760405162461bcd60e51b815260206004820152603160248201527f506c65617365206d616b652074686520707269636520746f2062652073616d65604482015270206173206c697374696e6720707269636560781b60648201526084016109a1565b6000838152600560205260408082206003015490516001600160a01b03909116913480156108fc02929091818181858888f19350505050158015610a76573d6000803e3d6000fd5b506040516323b872dd60e01b8152306004820152336024820152604481018290526001600160a01b038516906323b872dd90606401600060405180830381600087803b158015610ac557600080fd5b505af1158015610ad9573d6000803e3d6000fd5b505050600084815260056020526040902060078101805460ff1916600117905560040180546001600160a01b0319163317905550610b1b600280546001019055565b6003546004546040516001600160a01b039092169181156108fc0291906000818181858888f19350505050158015610b57573d6000803e3d6000fd5b50506001600055505050565b60026000541415610bb65760405162461bcd60e51b815260206004820152601f60248201527f5265656e7472616e637947756172643a207265656e7472616e742063616c6c0060448201526064016109a1565b600260005582610c005760405162461bcd60e51b81526020600482015260156024820152744e6f206974656d20666f722066726565206865726560581b60448201526064016109a1565b6004543414610c5d5760405162461bcd60e51b815260206004820152602360248201527f5072696365206d7573742062652073616d65206173206c697374696e6720707260448201526269636560e81b60648201526084016109a1565b610c6b600180546001019055565b6000610c7660015490565b9050604051806101000160405280828152602001876001600160a01b03168152602001868152602001336001600160a01b0316815260200160006001600160a01b0316815260200184848080601f01602080910402602001604051908101604052809392919081815260200183838082843760009201829052509385525050506020808301889052604092830182905284825260058082529183902084518155848201516001820180546001600160a01b03199081166001600160a01b039384161790915594860151600283015560608601516003830180548716918316919091179055608086015160048301805490961691161790935560a08401518051610d86938501929190910190611127565b5060c0820151600682015560e0909101516007909101805460ff19169115159190911790556040516323b872dd60e01b8152336004820152306024820152604481018690526001600160a01b038716906323b872dd90606401600060405180830381600087803b158015610df957600080fd5b505af1158015610e0d573d6000803e3d6000fd5b5050505084866001600160a01b0316827f058ba5dd04a75d8581491c06ed3308197306a78713282c4d1bdeef5bde9ba83333600088888b6000604051610e589695949392919061158e565b60405180910390a45050600160005550505050565b60606000610e7a60015490565b905060008060005b83811015610edd573360056000610e9a84600161145e565b81526020810191909152604001600020600401546001600160a01b03161415610ecb57610ec860018461145e565b92505b80610ed5816114c7565b915050610e82565b5060008267ffffffffffffffff811115610ef957610ef9611448565b604051908082528060200260200182016040528015610f3257816020015b610f1f6110e4565b815260200190600190039081610f175790505b50905060005b8481101561035c573360056000610f5084600161145e565b81526020810191909152604001600020600401546001600160a01b031614156110d2576000600581610f8384600161145e565b815260208082019290925260409081016000908120548082526005808552918390208351610100810185528154815260018201546001600160a01b0390811696820196909652600282015494810194909452600381015485166060850152600481015490941660808401529083018054919450839160a08401919061100790611476565b80601f016020809104026020016040519081016040528092919081815260200182805461103390611476565b80156110805780601f1061105557610100808354040283529160200191611080565b820191906000526020600020905b81548152906001019060200180831161106357829003601f168201915b50505091835250506006820154602082015260079091015460ff16151560409091015284518590879081106110b7576110b76114b1565b60209081029190910101526110cd60018661145e565b945050505b806110dc816114c7565b915050610f38565b604080516101008101825260008082526020820181905291810182905260608082018390526080820183905260a082015260c0810182905260e081019190915290565b82805461113390611476565b90600052602060002090601f016020900481019282611155576000855561119b565b82601f1061116e57805160ff191683800117855561119b565b8280016001018555821561119b579182015b8281111561119b578251825591602001919060010190611180565b506111a79291506111ab565b5090565b5b808211156111a757600081556001016111ac565b6000815180845260005b818110156111e6576020818501810151868301820152016111ca565b818111156111f8576000602083870101525b50601f01601f19169290920160200192915050565b60006020808301818452808551808352604092508286019150828160051b87010184880160005b838110156112d457603f19898403018552815180518452878101516001600160a01b039081168986015287820151888601526060808301518216908601526080808301519182168187015261010091505060a080830151828288015261129c838801826111c0565b9250505060c080830151818701525060e08083015192506112c08187018415159052565b509588019593505090860190600101611234565b509098975050505050505050565b60008083601f8401126112f457600080fd5b50813567ffffffffffffffff81111561130c57600080fd5b60208301915083602082850101111561132457600080fd5b9250929050565b6000806020838503121561133e57600080fd5b823567ffffffffffffffff81111561135557600080fd5b611361858286016112e2565b90969095509350505050565b80356001600160a01b038116811461138457600080fd5b919050565b6000806040838503121561139c57600080fd5b6113a58361136d565b946020939093013593505050565b6000806000806000608086880312156113cb57600080fd5b6113d48661136d565b94506020860135935060408601359250606086013567ffffffffffffffff8111156113fe57600080fd5b61140a888289016112e2565b969995985093965092949392505050565b634e487b7160e01b600052601160045260246000fd5b6000828210156114435761144361141b565b500390565b634e487b7160e01b600052604160045260246000fd5b600082198211156114715761147161141b565b500190565b600181811c9082168061148a57607f821691505b602082108114156114ab57634e487b7160e01b600052602260045260246000fd5b50919050565b634e487b7160e01b600052603260045260246000fd5b60006000198214156114db576114db61141b565b5060010190565b8183823760009101908152919050565b600080835481600182811c91508083168061150e57607f831692505b602080841082141561152e57634e487b7160e01b86526022600452602486fd5b818015611542576001811461155357611580565b60ff19861689528489019650611580565b60008a81526020902060005b868110156115785781548b82015290850190830161155f565b505084890196505b509498975050505050505050565b6001600160a01b0387811682528616602082015260a06040820181905281018490526000848660c0840137600060c0868401015260c0601f19601f8701168301019050836060830152821515608083015297965050505050505056fea26469706673582212201eb3dfeeba3b875de1f6899ed41c7f6341c616e8abdccd37e520aebf7a253a1c64736f6c63430008090033",
    "sourcePath": "d:/printer/OpenStore/contracts/NFTMarket.sol",
    "compiler": {
        "name": "solc",
        "version": "0.8.9+commit.e5eed63a"
    },
    "functionHashes": {
        "createMarketItem(address,uint256,uint256,string)": "ee45a711",
        "createMarketSale(address,uint256)": "c23b139e",
        "fetchCreateNFTs()": "7cbad146",
        "fetchPurchasedNFTs()": "ee6ba234",
        "getItemsByCategory(string)": "95478fbf",
        "getListingPrice()": "12e85585",
        "getMarketItems()": "29aa3a42"
    },
    "gasEstimates": {
        "creation": {
            "codeDepositCost": "1132800",
            "executionCost": "69621",
            "totalCost": "1202421"
        },
        "external": {
            "createMarketItem(address,uint256,uint256,string)": "infinite",
            "createMarketSale(address,uint256)": "infinite",
            "fetchCreateNFTs()": "infinite",
            "fetchPurchasedNFTs()": "infinite",
            "getItemsByCategory(string)": "infinite",
            "getListingPrice()": "2270",
            "getMarketItems()": "infinite"
        }
    }
}